{
  "_format": "hh-sol-artifact-1",
  "contractName": "NFTGatedFactory",
  "sourceName": "contracts/NFTGatedFactory.sol",
  "abi": [
    {
      "inputs": [],
      "name": "createNFTGatedEventManager",
      "outputs": [
        {
          "internalType": "contract NFTGatedEventManager",
          "name": "newEvent_",
          "type": "address"
        },
        {
          "internalType": "uint256",
          "name": "length_",
          "type": "uint256"
        }
      ],
      "stateMutability": "nonpayable",
      "type": "function"
    },
    {
      "inputs": [],
      "name": "getnFTGatedEventManagerClones",
      "outputs": [
        {
          "internalType": "contract NFTGatedEventManager[]",
          "name": "",
          "type": "address[]"
        }
      ],
      "stateMutability": "view",
      "type": "function"
    }
  ],
  "bytecode": "0x608060405234801561001057600080fd5b5061164c806100206000396000f3fe608060405234801561001057600080fd5b50600436106100365760003560e01c80635163fdf11461003b578063868cde4f1461005a575b600080fd5b610043610078565b604051610051929190610248565b60405180910390f35b610062610115565b60405161006f919061032f565b60405180910390f35b600080604051610087906101a3565b604051809103906000f0801580156100a3573d6000803e3d6000fd5b5091506000829080600181540180825580915050600190039060005260206000200160009091909190916101000a81548173ffffffffffffffffffffffffffffffffffffffff021916908373ffffffffffffffffffffffffffffffffffffffff16021790555060008054905090509091565b6060600080548060200260200160405190810160405280929190818152602001828054801561019957602002820191906000526020600020905b8160009054906101000a900473ffffffffffffffffffffffffffffffffffffffff1673ffffffffffffffffffffffffffffffffffffffff168152602001906001019080831161014f575b5050505050905090565b6112c58061035283390190565b600073ffffffffffffffffffffffffffffffffffffffff82169050919050565b6000819050919050565b60006101f56101f06101eb846101b0565b6101d0565b6101b0565b9050919050565b6000610207826101da565b9050919050565b6000610219826101fc565b9050919050565b6102298161020e565b82525050565b6000819050919050565b6102428161022f565b82525050565b600060408201905061025d6000830185610220565b61026a6020830184610239565b9392505050565b600081519050919050565b600082825260208201905092915050565b6000819050602082019050919050565b6102a68161020e565b82525050565b60006102b8838361029d565b60208301905092915050565b6000602082019050919050565b60006102dc82610271565b6102e6818561027c565b93506102f18361028d565b8060005b8381101561032257815161030988826102ac565b9750610314836102c4565b9250506001810190506102f5565b5085935050505092915050565b6000602082019050818103600083015261034981846102d1565b90509291505056fe608060405234801561001057600080fd5b506112a5806100206000396000f3fe608060405234801561001057600080fd5b50600436106100575760003560e01c8063089cdd0c1461005c5780630b7914301461007a578063406db843146100ae578063475375b5146100ca578063ec38d5a0146100e6575b600080fd5b61006461011a565b60405161007191906107c0565b60405180910390f35b610094600480360381019061008f919061081b565b610120565b6040516100a5959493929190610919565b60405180910390f35b6100c860048036038101906100c3919061081b565b6101fe565b005b6100e460048036038101906100df9190610ad4565b6104d5565b005b61010060048036038101906100fb919061081b565b6106b1565b604051610111959493929190610919565b60405180910390f35b60015481565b600060205280600052604060002060009150905080600001805461014390610b86565b80601f016020809104026020016040519081016040528092919081815260200182805461016f90610b86565b80156101bc5780601f10610191576101008083540402835291602001916101bc565b820191906000526020600020905b81548152906001019060200180831161019f57829003601f168201915b5050505050908060010154908060020154908060030160009054906101000a900473ffffffffffffffffffffffffffffffffffffffff16908060040154905085565b600080600083815260200190815260200160002090504281600101541161025a576040517f08c379a000000000000000000000000000000000000000000000000000000000815260040161025190610c03565b60405180910390fd5b80600201548160040154106102a4576040517f08c379a000000000000000000000000000000000000000000000000000000000815260040161029b90610c6f565b60405180910390fd5b8060050160003373ffffffffffffffffffffffffffffffffffffffff1673ffffffffffffffffffffffffffffffffffffffff16815260200190815260200160002060009054906101000a900460ff1615610333576040517f08c379a000000000000000000000000000000000000000000000000000000000815260040161032a90610cdb565b60405180910390fd5b60008160030160009054906101000a900473ffffffffffffffffffffffffffffffffffffffff16905060008173ffffffffffffffffffffffffffffffffffffffff166370a08231336040518263ffffffff1660e01b81526004016103979190610cfb565b602060405180830381865afa1580156103b4573d6000803e3d6000fd5b505050506040513d601f19601f820116820180604052508101906103d89190610d2b565b11610418576040517f08c379a000000000000000000000000000000000000000000000000000000000815260040161040f90610da4565b60405180910390fd5b60018260050160003373ffffffffffffffffffffffffffffffffffffffff1673ffffffffffffffffffffffffffffffffffffffff16815260200190815260200160002060006101000a81548160ff02191690831515021790555081600401600081548092919061048790610df3565b91905055503373ffffffffffffffffffffffffffffffffffffffff16837fb442efe467d2ef30e62927a3cae0afcbc799a8a0944d8a143332e4e5e51cee5d60405160405180910390a3505050565b428311610517576040517f08c379a000000000000000000000000000000000000000000000000000000000815260040161050e90610e87565b60405180910390fd5b6000821161055a576040517f08c379a000000000000000000000000000000000000000000000000000000000815260040161055190610f19565b60405180910390fd5b600073ffffffffffffffffffffffffffffffffffffffff168173ffffffffffffffffffffffffffffffffffffffff16036105c9576040517f08c379a00000000000000000000000000000000000000000000000000000000081526004016105c090610f85565b60405180910390fd5b600160008154809291906105dc90610df3565b91905055506000806000600154815260200190815260200160002090508481600001908161060a9190611151565b50838160010181905550828160020181905550818160030160006101000a81548173ffffffffffffffffffffffffffffffffffffffff021916908373ffffffffffffffffffffffffffffffffffffffff160217905550600081600401819055506001547f818cdd1d6860d493731be2106680d34811f56c9ed9d66dbf56a7c2dcc59c9be5868686866040516106a29493929190611223565b60405180910390a25050505050565b60606000806000806000806000888152602001908152602001600020905080600001816001015482600201548360030160009054906101000a900473ffffffffffffffffffffffffffffffffffffffff16846004015484805461071390610b86565b80601f016020809104026020016040519081016040528092919081815260200182805461073f90610b86565b801561078c5780601f106107615761010080835404028352916020019161078c565b820191906000526020600020905b81548152906001019060200180831161076f57829003601f168201915b50505050509450955095509550955095505091939590929450565b6000819050919050565b6107ba816107a7565b82525050565b60006020820190506107d560008301846107b1565b92915050565b6000604051905090565b600080fd5b600080fd5b6107f8816107a7565b811461080357600080fd5b50565b600081359050610815816107ef565b92915050565b600060208284031215610831576108306107e5565b5b600061083f84828501610806565b91505092915050565b600081519050919050565b600082825260208201905092915050565b60005b83811015610882578082015181840152602081019050610867565b60008484015250505050565b6000601f19601f8301169050919050565b60006108aa82610848565b6108b48185610853565b93506108c4818560208601610864565b6108cd8161088e565b840191505092915050565b600073ffffffffffffffffffffffffffffffffffffffff82169050919050565b6000610903826108d8565b9050919050565b610913816108f8565b82525050565b600060a0820190508181036000830152610933818861089f565b905061094260208301876107b1565b61094f60408301866107b1565b61095c606083018561090a565b61096960808301846107b1565b9695505050505050565b600080fd5b600080fd5b7f4e487b7100000000000000000000000000000000000000000000000000000000600052604160045260246000fd5b6109b58261088e565b810181811067ffffffffffffffff821117156109d4576109d361097d565b5b80604052505050565b60006109e76107db565b90506109f382826109ac565b919050565b600067ffffffffffffffff821115610a1357610a1261097d565b5b610a1c8261088e565b9050602081019050919050565b82818337600083830152505050565b6000610a4b610a46846109f8565b6109dd565b905082815260208101848484011115610a6757610a66610978565b5b610a72848285610a29565b509392505050565b600082601f830112610a8f57610a8e610973565b5b8135610a9f848260208601610a38565b91505092915050565b610ab1816108f8565b8114610abc57600080fd5b50565b600081359050610ace81610aa8565b92915050565b60008060008060808587031215610aee57610aed6107e5565b5b600085013567ffffffffffffffff811115610b0c57610b0b6107ea565b5b610b1887828801610a7a565b9450506020610b2987828801610806565b9350506040610b3a87828801610806565b9250506060610b4b87828801610abf565b91505092959194509250565b7f4e487b7100000000000000000000000000000000000000000000000000000000600052602260045260246000fd5b60006002820490506001821680610b9e57607f821691505b602082108103610bb157610bb0610b57565b5b50919050565b7f4576656e742068617320616c7265616479206f63637572726564000000000000600082015250565b6000610bed601a83610853565b9150610bf882610bb7565b602082019050919050565b60006020820190508181036000830152610c1c81610be0565b9050919050565b7f4576656e742069732066756c6c00000000000000000000000000000000000000600082015250565b6000610c59600d83610853565b9150610c6482610c23565b602082019050919050565b60006020820190508181036000830152610c8881610c4c565b9050919050565b7f596f752061726520616c72656164792072656769737465726564000000000000600082015250565b6000610cc5601a83610853565b9150610cd082610c8f565b602082019050919050565b60006020820190508181036000830152610cf481610cb8565b9050919050565b6000602082019050610d10600083018461090a565b92915050565b600081519050610d25816107ef565b92915050565b600060208284031215610d4157610d406107e5565b5b6000610d4f84828501610d16565b91505092915050565b7f596f7520646f206e6f74206f776e20746865207265717569726564204e465400600082015250565b6000610d8e601f83610853565b9150610d9982610d58565b602082019050919050565b60006020820190508181036000830152610dbd81610d81565b9050919050565b7f4e487b7100000000000000000000000000000000000000000000000000000000600052601160045260246000fd5b6000610dfe826107a7565b91507fffffffffffffffffffffffffffffffffffffffffffffffffffffffffffffffff8203610e3057610e2f610dc4565b5b600182019050919050565b7f4576656e742064617465206d75737420626520696e2074686520667574757265600082015250565b6000610e71602083610853565b9150610e7c82610e3b565b602082019050919050565b60006020820190508181036000830152610ea081610e64565b9050919050565b7f4361706163697479206d7573742062652067726561746572207468616e207a6560008201527f726f000000000000000000000000000000000000000000000000000000000000602082015250565b6000610f03602283610853565b9150610f0e82610ea7565b604082019050919050565b60006020820190508181036000830152610f3281610ef6565b9050919050565b7f496e76616c6964204e465420636f6e7472616374206164647265737300000000600082015250565b6000610f6f601c83610853565b9150610f7a82610f39565b602082019050919050565b60006020820190508181036000830152610f9e81610f62565b9050919050565b60008190508160005260206000209050919050565b60006020601f8301049050919050565b600082821b905092915050565b6000600883026110077fffffffffffffffffffffffffffffffffffffffffffffffffffffffffffffffff82610fca565b6110118683610fca565b95508019841693508086168417925050509392505050565b6000819050919050565b600061104e611049611044846107a7565b611029565b6107a7565b9050919050565b6000819050919050565b61106883611033565b61107c61107482611055565b848454610fd7565b825550505050565b600090565b611091611084565b61109c81848461105f565b505050565b5b818110156110c0576110b5600082611089565b6001810190506110a2565b5050565b601f821115611105576110d681610fa5565b6110df84610fba565b810160208510156110ee578190505b6111026110fa85610fba565b8301826110a1565b50505b505050565b600082821c905092915050565b60006111286000198460080261110a565b1980831691505092915050565b60006111418383611117565b9150826002028217905092915050565b61115a82610848565b67ffffffffffffffff8111156111735761117261097d565b5b61117d8254610b86565b6111888282856110c4565b600060209050601f8311600181146111bb57600084156111a9578287015190505b6111b38582611135565b86555061121b565b601f1984166111c986610fa5565b60005b828110156111f1578489015182556001820191506020850194506020810190506111cc565b8683101561120e578489015161120a601f891682611117565b8355505b6001600288020188555050505b505050505050565b6000608082019050818103600083015261123d818761089f565b905061124c60208301866107b1565b61125960408301856107b1565b611266606083018461090a565b9594505050505056fea26469706673582212207b28cb264c601c5685496a28a861d54c57903f33d2fbb7237a8930b3882db20964736f6c63430008180033a2646970667358221220ef224c092238ec60eb19704b5e164424c2c829de6a17810639ce7682fed0973764736f6c63430008180033",
  "linkReferences": {},
  "deployedLinkReferences": {}
}