{
  "contracts/Expoit.sol": {
    "Exploit": {
      "abi": [
        {
          "inputs": [
            {
              "internalType": "address",
              "name": "challengeAddress",
              "type": "address"
            }
          ],
          "stateMutability": "nonpayable",
          "type": "constructor"
        },
        {
          "stateMutability": "nonpayable",
          "type": "fallback"
        },
        {
          "inputs": [
            {
              "internalType": "string",
              "name": "name",
              "type": "string"
            }
          ],
          "name": "attack",
          "outputs": [],
          "stateMutability": "nonpayable",
          "type": "function"
        },
        {
          "inputs": [],
          "name": "challenge",
          "outputs": [
            {
              "internalType": "contract IChallenge",
              "name": "",
              "type": "address"
            }
          ],
          "stateMutability": "view",
          "type": "function"
        }
      ],
      "evm": {
        "bytecode": {
          "linkReferences": {},
          "object": "608060405234801561001057600080fd5b506040516105d03803806105d0833981810160405281019061003291906100db565b806000806101000a81548173ffffffffffffffffffffffffffffffffffffffff021916908373ffffffffffffffffffffffffffffffffffffffff16021790555050610108565b600080fd5b600073ffffffffffffffffffffffffffffffffffffffff82169050919050565b60006100a88261007d565b9050919050565b6100b88161009d565b81146100c357600080fd5b50565b6000815190506100d5816100af565b92915050565b6000602082840312156100f1576100f0610078565b5b60006100ff848285016100c6565b91505092915050565b6104b9806101176000396000f3fe608060405234801561001057600080fd5b506004361061003a5760003560e01c8063aabb7554146100b9578063d2ef7398146100d55761003b565b5b60008054906101000a900473ffffffffffffffffffffffffffffffffffffffff1673ffffffffffffffffffffffffffffffffffffffff16634c228cc76040518163ffffffff1660e01b8152600401600060405180830381600087803b1580156100a357600080fd5b505af11580156100b7573d6000803e3d6000fd5b005b6100d360048036038101906100ce91906102ff565b6100f3565b005b6100dd610181565b6040516100ea91906103c7565b60405180910390f35b60008054906101000a900473ffffffffffffffffffffffffffffffffffffffff1673ffffffffffffffffffffffffffffffffffffffff166332e52498826040518263ffffffff1660e01b815260040161014c9190610461565b600060405180830381600087803b15801561016657600080fd5b505af115801561017a573d6000803e3d6000fd5b5050505050565b60008054906101000a900473ffffffffffffffffffffffffffffffffffffffff1681565b6000604051905090565b600080fd5b600080fd5b600080fd5b600080fd5b6000601f19601f8301169050919050565b7f4e487b7100000000000000000000000000000000000000000000000000000000600052604160045260246000fd5b61020c826101c3565b810181811067ffffffffffffffff8211171561022b5761022a6101d4565b5b80604052505050565b600061023e6101a5565b905061024a8282610203565b919050565b600067ffffffffffffffff82111561026a576102696101d4565b5b610273826101c3565b9050602081019050919050565b82818337600083830152505050565b60006102a261029d8461024f565b610234565b9050828152602081018484840111156102be576102bd6101be565b5b6102c9848285610280565b509392505050565b600082601f8301126102e6576102e56101b9565b5b81356102f684826020860161028f565b91505092915050565b600060208284031215610315576103146101af565b5b600082013567ffffffffffffffff811115610333576103326101b4565b5b61033f848285016102d1565b91505092915050565b600073ffffffffffffffffffffffffffffffffffffffff82169050919050565b6000819050919050565b600061038d61038861038384610348565b610368565b610348565b9050919050565b600061039f82610372565b9050919050565b60006103b182610394565b9050919050565b6103c1816103a6565b82525050565b60006020820190506103dc60008301846103b8565b92915050565b600081519050919050565b600082825260208201905092915050565b60005b8381101561041c578082015181840152602081019050610401565b60008484015250505050565b6000610433826103e2565b61043d81856103ed565b935061044d8185602086016103fe565b610456816101c3565b840191505092915050565b6000602082019050818103600083015261047b8184610428565b90509291505056fea264697066735822122054d0fc2eba7eda7c0c63b5607d2034c9f0ca0db77dea6e3810f14fe74d11201064736f6c63430008180033",
          "opcodes": "PUSH1 0x80 PUSH1 0x40 MSTORE CALLVALUE DUP1 ISZERO PUSH2 0x10 JUMPI PUSH1 0x0 DUP1 REVERT JUMPDEST POP PUSH1 0x40 MLOAD PUSH2 0x5D0 CODESIZE SUB DUP1 PUSH2 0x5D0 DUP4 CODECOPY DUP2 DUP2 ADD PUSH1 0x40 MSTORE DUP2 ADD SWAP1 PUSH2 0x32 SWAP2 SWAP1 PUSH2 0xDB JUMP JUMPDEST DUP1 PUSH1 0x0 DUP1 PUSH2 0x100 EXP DUP2 SLOAD DUP2 PUSH20 0xFFFFFFFFFFFFFFFFFFFFFFFFFFFFFFFFFFFFFFFF MUL NOT AND SWAP1 DUP4 PUSH20 0xFFFFFFFFFFFFFFFFFFFFFFFFFFFFFFFFFFFFFFFF AND MUL OR SWAP1 SSTORE POP POP PUSH2 0x108 JUMP JUMPDEST PUSH1 0x0 DUP1 REVERT JUMPDEST PUSH1 0x0 PUSH20 0xFFFFFFFFFFFFFFFFFFFFFFFFFFFFFFFFFFFFFFFF DUP3 AND SWAP1 POP SWAP2 SWAP1 POP JUMP JUMPDEST PUSH1 0x0 PUSH2 0xA8 DUP3 PUSH2 0x7D JUMP JUMPDEST SWAP1 POP SWAP2 SWAP1 POP JUMP JUMPDEST PUSH2 0xB8 DUP2 PUSH2 0x9D JUMP JUMPDEST DUP2 EQ PUSH2 0xC3 JUMPI PUSH1 0x0 DUP1 REVERT JUMPDEST POP JUMP JUMPDEST PUSH1 0x0 DUP2 MLOAD SWAP1 POP PUSH2 0xD5 DUP2 PUSH2 0xAF JUMP JUMPDEST SWAP3 SWAP2 POP POP JUMP JUMPDEST PUSH1 0x0 PUSH1 0x20 DUP3 DUP5 SUB SLT ISZERO PUSH2 0xF1 JUMPI PUSH2 0xF0 PUSH2 0x78 JUMP JUMPDEST JUMPDEST PUSH1 0x0 PUSH2 0xFF DUP5 DUP3 DUP6 ADD PUSH2 0xC6 JUMP JUMPDEST SWAP2 POP POP SWAP3 SWAP2 POP POP JUMP JUMPDEST PUSH2 0x4B9 DUP1 PUSH2 0x117 PUSH1 0x0 CODECOPY PUSH1 0x0 RETURN INVALID PUSH1 0x80 PUSH1 0x40 MSTORE CALLVALUE DUP1 ISZERO PUSH2 0x10 JUMPI PUSH1 0x0 DUP1 REVERT JUMPDEST POP PUSH1 0x4 CALLDATASIZE LT PUSH2 0x3A JUMPI PUSH1 0x0 CALLDATALOAD PUSH1 0xE0 SHR DUP1 PUSH4 0xAABB7554 EQ PUSH2 0xB9 JUMPI DUP1 PUSH4 0xD2EF7398 EQ PUSH2 0xD5 JUMPI PUSH2 0x3B JUMP JUMPDEST JUMPDEST PUSH1 0x0 DUP1 SLOAD SWAP1 PUSH2 0x100 EXP SWAP1 DIV PUSH20 0xFFFFFFFFFFFFFFFFFFFFFFFFFFFFFFFFFFFFFFFF AND PUSH20 0xFFFFFFFFFFFFFFFFFFFFFFFFFFFFFFFFFFFFFFFF AND PUSH4 0x4C228CC7 PUSH1 0x40 MLOAD DUP2 PUSH4 0xFFFFFFFF AND PUSH1 0xE0 SHL DUP2 MSTORE PUSH1 0x4 ADD PUSH1 0x0 PUSH1 0x40 MLOAD DUP1 DUP4 SUB DUP2 PUSH1 0x0 DUP8 DUP1 EXTCODESIZE ISZERO DUP1 ISZERO PUSH2 0xA3 JUMPI PUSH1 0x0 DUP1 REVERT JUMPDEST POP GAS CALL ISZERO DUP1 ISZERO PUSH2 0xB7 JUMPI RETURNDATASIZE PUSH1 0x0 DUP1 RETURNDATACOPY RETURNDATASIZE PUSH1 0x0 REVERT JUMPDEST STOP JUMPDEST PUSH2 0xD3 PUSH1 0x4 DUP1 CALLDATASIZE SUB DUP2 ADD SWAP1 PUSH2 0xCE SWAP2 SWAP1 PUSH2 0x2FF JUMP JUMPDEST PUSH2 0xF3 JUMP JUMPDEST STOP JUMPDEST PUSH2 0xDD PUSH2 0x181 JUMP JUMPDEST PUSH1 0x40 MLOAD PUSH2 0xEA SWAP2 SWAP1 PUSH2 0x3C7 JUMP JUMPDEST PUSH1 0x40 MLOAD DUP1 SWAP2 SUB SWAP1 RETURN JUMPDEST PUSH1 0x0 DUP1 SLOAD SWAP1 PUSH2 0x100 EXP SWAP1 DIV PUSH20 0xFFFFFFFFFFFFFFFFFFFFFFFFFFFFFFFFFFFFFFFF AND PUSH20 0xFFFFFFFFFFFFFFFFFFFFFFFFFFFFFFFFFFFFFFFF AND PUSH4 0x32E52498 DUP3 PUSH1 0x40 MLOAD DUP3 PUSH4 0xFFFFFFFF AND PUSH1 0xE0 SHL DUP2 MSTORE PUSH1 0x4 ADD PUSH2 0x14C SWAP2 SWAP1 PUSH2 0x461 JUMP JUMPDEST PUSH1 0x0 PUSH1 0x40 MLOAD DUP1 DUP4 SUB DUP2 PUSH1 0x0 DUP8 DUP1 EXTCODESIZE ISZERO DUP1 ISZERO PUSH2 0x166 JUMPI PUSH1 0x0 DUP1 REVERT JUMPDEST POP GAS CALL ISZERO DUP1 ISZERO PUSH2 0x17A JUMPI RETURNDATASIZE PUSH1 0x0 DUP1 RETURNDATACOPY RETURNDATASIZE PUSH1 0x0 REVERT JUMPDEST POP POP POP POP POP JUMP JUMPDEST PUSH1 0x0 DUP1 SLOAD SWAP1 PUSH2 0x100 EXP SWAP1 DIV PUSH20 0xFFFFFFFFFFFFFFFFFFFFFFFFFFFFFFFFFFFFFFFF AND DUP2 JUMP JUMPDEST PUSH1 0x0 PUSH1 0x40 MLOAD SWAP1 POP SWAP1 JUMP JUMPDEST PUSH1 0x0 DUP1 REVERT JUMPDEST PUSH1 0x0 DUP1 REVERT JUMPDEST PUSH1 0x0 DUP1 REVERT JUMPDEST PUSH1 0x0 DUP1 REVERT JUMPDEST PUSH1 0x0 PUSH1 0x1F NOT PUSH1 0x1F DUP4 ADD AND SWAP1 POP SWAP2 SWAP1 POP JUMP JUMPDEST PUSH32 0x4E487B7100000000000000000000000000000000000000000000000000000000 PUSH1 0x0 MSTORE PUSH1 0x41 PUSH1 0x4 MSTORE PUSH1 0x24 PUSH1 0x0 REVERT JUMPDEST PUSH2 0x20C DUP3 PUSH2 0x1C3 JUMP JUMPDEST DUP2 ADD DUP2 DUP2 LT PUSH8 0xFFFFFFFFFFFFFFFF DUP3 GT OR ISZERO PUSH2 0x22B JUMPI PUSH2 0x22A PUSH2 0x1D4 JUMP JUMPDEST JUMPDEST DUP1 PUSH1 0x40 MSTORE POP POP POP JUMP JUMPDEST PUSH1 0x0 PUSH2 0x23E PUSH2 0x1A5 JUMP JUMPDEST SWAP1 POP PUSH2 0x24A DUP3 DUP3 PUSH2 0x203 JUMP JUMPDEST SWAP2 SWAP1 POP JUMP JUMPDEST PUSH1 0x0 PUSH8 0xFFFFFFFFFFFFFFFF DUP3 GT ISZERO PUSH2 0x26A JUMPI PUSH2 0x269 PUSH2 0x1D4 JUMP JUMPDEST JUMPDEST PUSH2 0x273 DUP3 PUSH2 0x1C3 JUMP JUMPDEST SWAP1 POP PUSH1 0x20 DUP2 ADD SWAP1 POP SWAP2 SWAP1 POP JUMP JUMPDEST DUP3 DUP2 DUP4 CALLDATACOPY PUSH1 0x0 DUP4 DUP4 ADD MSTORE POP POP POP JUMP JUMPDEST PUSH1 0x0 PUSH2 0x2A2 PUSH2 0x29D DUP5 PUSH2 0x24F JUMP JUMPDEST PUSH2 0x234 JUMP JUMPDEST SWAP1 POP DUP3 DUP2 MSTORE PUSH1 0x20 DUP2 ADD DUP5 DUP5 DUP5 ADD GT ISZERO PUSH2 0x2BE JUMPI PUSH2 0x2BD PUSH2 0x1BE JUMP JUMPDEST JUMPDEST PUSH2 0x2C9 DUP5 DUP3 DUP6 PUSH2 0x280 JUMP JUMPDEST POP SWAP4 SWAP3 POP POP POP JUMP JUMPDEST PUSH1 0x0 DUP3 PUSH1 0x1F DUP4 ADD SLT PUSH2 0x2E6 JUMPI PUSH2 0x2E5 PUSH2 0x1B9 JUMP JUMPDEST JUMPDEST DUP2 CALLDATALOAD PUSH2 0x2F6 DUP5 DUP3 PUSH1 0x20 DUP7 ADD PUSH2 0x28F JUMP JUMPDEST SWAP2 POP POP SWAP3 SWAP2 POP POP JUMP JUMPDEST PUSH1 0x0 PUSH1 0x20 DUP3 DUP5 SUB SLT ISZERO PUSH2 0x315 JUMPI PUSH2 0x314 PUSH2 0x1AF JUMP JUMPDEST JUMPDEST PUSH1 0x0 DUP3 ADD CALLDATALOAD PUSH8 0xFFFFFFFFFFFFFFFF DUP2 GT ISZERO PUSH2 0x333 JUMPI PUSH2 0x332 PUSH2 0x1B4 JUMP JUMPDEST JUMPDEST PUSH2 0x33F DUP5 DUP3 DUP6 ADD PUSH2 0x2D1 JUMP JUMPDEST SWAP2 POP POP SWAP3 SWAP2 POP POP JUMP JUMPDEST PUSH1 0x0 PUSH20 0xFFFFFFFFFFFFFFFFFFFFFFFFFFFFFFFFFFFFFFFF DUP3 AND SWAP1 POP SWAP2 SWAP1 POP JUMP JUMPDEST PUSH1 0x0 DUP2 SWAP1 POP SWAP2 SWAP1 POP JUMP JUMPDEST PUSH1 0x0 PUSH2 0x38D PUSH2 0x388 PUSH2 0x383 DUP5 PUSH2 0x348 JUMP JUMPDEST PUSH2 0x368 JUMP JUMPDEST PUSH2 0x348 JUMP JUMPDEST SWAP1 POP SWAP2 SWAP1 POP JUMP JUMPDEST PUSH1 0x0 PUSH2 0x39F DUP3 PUSH2 0x372 JUMP JUMPDEST SWAP1 POP SWAP2 SWAP1 POP JUMP JUMPDEST PUSH1 0x0 PUSH2 0x3B1 DUP3 PUSH2 0x394 JUMP JUMPDEST SWAP1 POP SWAP2 SWAP1 POP JUMP JUMPDEST PUSH2 0x3C1 DUP2 PUSH2 0x3A6 JUMP JUMPDEST DUP3 MSTORE POP POP JUMP JUMPDEST PUSH1 0x0 PUSH1 0x20 DUP3 ADD SWAP1 POP PUSH2 0x3DC PUSH1 0x0 DUP4 ADD DUP5 PUSH2 0x3B8 JUMP JUMPDEST SWAP3 SWAP2 POP POP JUMP JUMPDEST PUSH1 0x0 DUP2 MLOAD SWAP1 POP SWAP2 SWAP1 POP JUMP JUMPDEST PUSH1 0x0 DUP3 DUP3 MSTORE PUSH1 0x20 DUP3 ADD SWAP1 POP SWAP3 SWAP2 POP POP JUMP JUMPDEST PUSH1 0x0 JUMPDEST DUP4 DUP2 LT ISZERO PUSH2 0x41C JUMPI DUP1 DUP3 ADD MLOAD DUP2 DUP5 ADD MSTORE PUSH1 0x20 DUP2 ADD SWAP1 POP PUSH2 0x401 JUMP JUMPDEST PUSH1 0x0 DUP5 DUP5 ADD MSTORE POP POP POP POP JUMP JUMPDEST PUSH1 0x0 PUSH2 0x433 DUP3 PUSH2 0x3E2 JUMP JUMPDEST PUSH2 0x43D DUP2 DUP6 PUSH2 0x3ED JUMP JUMPDEST SWAP4 POP PUSH2 0x44D DUP2 DUP6 PUSH1 0x20 DUP7 ADD PUSH2 0x3FE JUMP JUMPDEST PUSH2 0x456 DUP2 PUSH2 0x1C3 JUMP JUMPDEST DUP5 ADD SWAP2 POP POP SWAP3 SWAP2 POP POP JUMP JUMPDEST PUSH1 0x0 PUSH1 0x20 DUP3 ADD SWAP1 POP DUP2 DUP2 SUB PUSH1 0x0 DUP4 ADD MSTORE PUSH2 0x47B DUP2 DUP5 PUSH2 0x428 JUMP JUMPDEST SWAP1 POP SWAP3 SWAP2 POP POP JUMP INVALID LOG2 PUSH5 0x6970667358 0x22 SLT KECCAK256 SLOAD 0xD0 0xFC 0x2E 0xBA PUSH31 0xDA7C0C63B5607D2034C9F0CA0DB77DEA6E3810F14FE74D11201064736F6C63 NUMBER STOP ADDMOD XOR STOP CALLER "
        },
        "methodIdentifiers": {
          "attack(string)": "aabb7554",
          "challenge()": "d2ef7398"
        }
      }
    }
  }
}